S00B000050574D2E7372656325
S11300000C942A000C9449000C9468000C9447004A
S11300100C9447000C9447000C9447000C94470040
S11300200C9447000C9447000C9447000C94470030
S11300300C9447000C9447000C9447000C94470020
S11300400C9480000C9447000C9447000C944700D7
S11300500C94470011241FBECFE5D8E0DEBFCDBF0E
S113006010E0A0E6B0E0ECEDF1E002C005900D92E6
S1130070A036B107D9F710E0A0E6B0E001C01D92A8
S1130080A036B107E1F70E94BC000C94EC000C947C
S113009000001F920F920FB60F9211242F933F93DB
S11300A08F939F932AB53BB586B597B50197821771
S11300B0930728F08AB59BB501969BBD8ABD9F9195
S11300C08F913F912F910F900FBE0F901F90189515
S11300D01F920F920FB60F9211248F939F938AB59C
S11300E09BB58230910528F08AB59BB501979BBDDD
S11300F08ABD9F918F910F900FBE0F901F901895FE
S11301001F920F920FB60F9211248F9384B185B171
S1130110369A8F910F900FBE0F901F90189588BB41
S1130120979A82B38C7F82BB8FEC97E00197F1F7AB
S113013000C0000082B312BA8FEC97E00197F1F788
S113014000C0000008958FEF99EF0197F1F700C008
S1130150000088E30E948F008CE00E948F0081E001
S11301600E948F008FEC97E00197F1F700C0000028
S113017084E00E948F000895F89483EA81BB8FEF96
S113018087BB82EA8FBD89E18EBD8DE491E097BD86
S113019086BD85E090E09BBD8ABD80EC8BBF8FE07F
S11301A085BF329A3E9A339A379A78940E94A30074
S11301B0FFCF88BB82B3826882BB90988FEC97E0B4
S11301C00197F1F700C0000097988FEC97E0019732
S10F01D0F1F700C000000895F894FFCF80
S9030000FC
