S00B000050574D2E7372656325
S11300000C942A000C945E000C947D000C94470020
S11300100C9447000C9447000C9447000C94470040
S11300200C9447000C9447000C9447000C94470030
S11300300C9447000C9447000C9447000C94470020
S11300400C9447000C9447000C9447000C94470010
S11300500C94470011241FBECFE5D8E0DEBFCDBF0E
S113006010E0A0E6B0E0EEE2F1E002C005900D92EF
S1130070A036B107D9F710E0A0E6B0E001C01D92A8
S1130080A036B107E1F70E9449000C9495000C9446
S11300900000F89480E381BB82EA8FBD89E18EBDC4
S11300A08DE491E097BD86BD85E090E09BBD8ABD5F
S11300B080EC8BBF8FE085BF7894FFCF1F920F92A7
S11300C00FB60F9211242F933F938F939F932AB5CA
S11300D03BB586B597B501978217930728F08AB583
S11300E09BB501969BBD8ABD9F918F913F912F91A6
S11300F00F900FBE0F901F9018951F920F920FB67E
S11301000F9211248F939F938AB59BB582309105EA
S113011028F08AB59BB501979BBD8ABD9F918F91AD
S11101200F900FBE0F901F901895F894FFCF0C
S9030000FC
