:100000000C942A000C9449000C9468000C9447004E
:100010000C9447000C9447000C9447000C94470044
:100020000C9447000C9447000C9447000C94470034
:100030000C9447000C9447000C9447000C94470024
:100040000C9480000C9447000C9447000C944700DB
:100050000C94470011241FBECFE5D8E0DEBFCDBF12
:1000600010E0A0E6B0E0E0ECF6E002C005900D92F2
:10007000A238B107D9F710E0A2E8B0E001C01D92A4
:10008000A938B107E1F70E94F8000C945E030C94C4
:1000900000001F920F920FB60F9211242F933F93DF
:1000A0008F939F932AB53BB586B597B50197821775
:1000B000930728F08AB59BB501969BBD8ABD9F9199
:1000C0008F913F912F910F900FBE0F901F90189519
:1000D0001F920F920FB60F9211248F939F938AB5A0
:1000E0009BB58230910528F08AB59BB501979BBDE1
:1000F0008ABD9F918F910F900FBE0F901F90189502
:100100001F920F920FB60F9211242F938F939F93EC
:1001100084B18093880025B1922F80E0909387006E
:1001200080938600369A9F918F912F910F900FBEEA
:100130000F901F90189588BB82B38C7F82BB979AD3
:100140008FEC97E00197F1F700C0000097988FECD3
:1001500097E00197F1F700C00000089588BB9198DF
:1001600082B3816882BB8FEC97E00197F1F700C002
:10017000000082B38E7782BB0895CF93C82F862F5D
:100180000E949B008FEC97E00197F1F700C0000000
:100190008C2F0E94AE00CF9108958FEF99EF0197B9
:1001A000F1F700C000008CE30E949B008FE00E94EA
:1001B0009B0081E00E949B008FEC97E00197F1F794
:1001C00000C0000086E00E949B000895CF93DF935B
:1001D000EC01862F0E949B008881882331F02196B4
:1001E0000E94AE0089918823D9F7DF91CF910895BD
:1001F000F89483EA81BB8FEF87BB82EA8FBD89E1E8
:100200008EBD8DE491E097BD86BD85E090E09BBDFD
:100210008ABD8BB7806C8BBF85B78F6085BF329AE4
:100220003E9A339A379A78940E94CD0080E690E007
:1002300060E80E94E60081E790E060EC0E94E60042
:10024000FFCF9F92AF92BF92CF92DF92EF92FF9239
:100250000F931F93CF93DF936B017C01B42E0E9409
:100260001502DC01CB01EC012AE030E0B9010E946B
:100270003703AE01481B590BCA01B9010E9437036D
:10028000A62E70E080E090E00E9448029B01AC0145
:10029000C701B6010E94B0010E941502962EBE0150
:1002A000882777FD8095982F0E9448029B01AC011A
:1002B000C701B6010E94B00120E030E040E251E405
:1002C0000E94D402D62FC72F182F092F862F9C2FBC
:1002D000A12FB02FBC01CD010E941502F62E70E0B7
:1002E00080E090E00E9448029B01AC018D2F9C2F82
:1002F000A12FB02FBC01CD010E94B00120E030E061
:1003000040E251E40E94D40220E030E040E05FE3AC
:100310000E94B1010E941502C62F8A2D805D6B2DAF
:100320000E94BD006B2D6F5F892D805D0E94BD0016
:100330006B2D6D5F8F2D805D0E94BD006B2D6C5FFE
:100340008C2F805D0E94BD00DF91CF911F910F9196
:10035000FF90EF90DF90CF90BF90AF909F90089567
:100360005058BB27AA270ED0E5C0D6D030F0DBD03E
:1003700020F031F49F3F11F41EF4CBC00EF4E09551
:10038000E7FBC1C0E92FE7D080F3BA176207730714
:100390008407950718F071F49EF5FFC00EF4E09500
:1003A0000B2EBA2FA02D0B01B90190010C01CA012F
:1003B000A0011124FF27591B99F0593F50F4503EDA
:1003C00068F11A16F040A22F232F342F4427585FCC
:1003D000F3CF469537952795A795F0405395C9F7E4
:1003E0007EF41F16BA0B620B730B840BBAF091509C
:1003F000A1F0FF0FBB1F661F771F881FC2F70EC03B
:10040000BA0F621F731F841F48F48795779567950D
:10041000B795F7959E3F08F0B3CF9395880F08F0F6
:100420009927EE0F97958795089504D06894B11198
:10043000B5C0089598D088F09F5790F0B92F9927AC
:10044000B751A0F0D1F0660F771F881F991F1AF0DF
:10045000BA95C9F712C0B13081F09FD0B1E00895CC
:100460009CC0672F782F8827B85F39F0B93FCCF34D
:10047000869577956795B395D9F73EF490958095D5
:10048000709561957F4F8F4F9F4F0895E89409C0F5
:1004900097FB3EF490958095709561957F4F8F4FB7
:1004A0009F4F9923A9F0F92F96E9BB279395F695CD
:1004B000879577956795B795F111F8CFFAF4BB0F4B
:1004C00011F460FF1BC06F5F7F4F8F4F9F4F16C0AF
:1004D000882311F096E911C0772321F09EE8872F39
:1004E000762F05C0662371F096E8862F70E060E0F5
:1004F0002AF09A95660F771F881FDAF7880F96956E
:10050000879597F9089597F99F6780E870E060E014
:1005100008959FEF80EC089500240A94161617069C
:1005200018060906089500240A94121613061406E4
:1005300005060895092E0394000C11F4882352F047
:10054000BB0F40F4BF2B11F460FF04C06F5F7F4FFF
:100550008F4F9F4F089557FD9058440F551F59F0E6
:100560005F3F71F04795880F97FB991F61F09F3FA0
:1005700079F087950895121613061406551FF2CFC9
:100580004695F1DF08C0161617061806991FF1CF19
:1005900086957105610508940895E894BB27662740
:1005A0007727CB0197F908950BD0C4CFB5DF28F09A
:1005B000BADF18F0952309F0A6CFABCF1124EECF08
:1005C000CADFA0F3959FD1F3950F50E0551F629FAE
:1005D000F001729FBB27F00DB11D639FAA27F00D9C
:1005E000B11DAA1F649F6627B00DA11D661F829FC3
:1005F0002227B00DA11D621F739FB00DA11D621FA8
:10060000839FA00D611D221F749F3327A00D611DC4
:10061000231F849F600D211D822F762F6A2F1124A6
:100620009F5750408AF0E1F088234AF0EE0FFF1FF9
:10063000BB1F661F771F881F91505040A9F79E3F30
:10064000510570F060CFAACF5F3FECF3983EDCF32A
:10065000869577956795B795F795E7959F5FC1F76D
:10066000FE2B880F911D9695879597F9089597FB16
:10067000092E07260AD077FD04D00CD006D0002022
:100680001AF4709561957F4F0895F6F790958195CE
:100690009F4F0895AA1BBB1B51E107C0AA1FBB1F98
:1006A000A617B70710F0A61BB70B881F991F5A95FE
:1006B000A9F780959095BC01CD010895F894FFCFDE
:1006C000202041444320566F6C746167653A2020B6
:1006D00000202020202030302E30305620202020B6
:0206E0002000F8
:00000001FF
