S00B000050574D2E7372656325
S11300000C946B000C948A000C94A4000C9488004B
S11300100C9488000C9488000C9488000C9488003C
S11300200C9488000C9488000C9488000C9488002C
S11300300C9488000C9488000C9488000C9488001C
S11300400C94BE000C9488000C9488000C948800D6
S11300500C94880007634236B79BD8A71A396856B0
S113006018AEBAAB558C1D3CB7CC5763BD6DEDFDD6
S1130070753EF6177231BF000000803F0800000093
S1130080BE922449123EABAAAA2ABECDCCCC4C3E89
S113009000000080BEABAAAAAA3E00000000BF0078
S11300A00000803F0000000000084178D3BB438774
S11300B0D1133D190E3CC3BD4282AD2B3E68EC8288
S11300C076BED98FE1A93E4C80EFFFBE01C4FF7F0D
S11300D03F000000000011241FBECFE5D8E0DEBFC2
S11300E0CDBF10E0A0E6B0E0ECE4FCE002C0059077
S11300F00D92A238B107D9F710E0A2E8B0E001C030
S11301001D92A339B107E1F70E94EF010C94240674
S11301100C9400001F920F920FB60F9211248F932C
S11301209F9380918E0090918F008E3191052CF4D5
S1130130019690938F0080938E009F918F910F90E2
S11301400FBE0F901F9018951F920F920FB60F922B
S113015011248F939F9380918E0090918F00181695
S113016019062CF4019790938F0080938E009F9131
S11301708F910F900FBE0F901F9018951F920F92A2
S11301800FB60F9211242F938F939F9384B1809372
S1130190920025B1922F80E090939100809390007B
S11301A0209192008091900090919100820F911D76
S11301B09093910080939000369A9F918F912F9104
S11301C00F900FBE0F901F90189588BB82B38C7F41
S11301D082BB979A8FEC97E00197F1F700C000007B
S11301E097988FEC97E00197F1F700C0000008950D
S11301F088BB919882B3816882BB8FEC97E00197AA
S1130200F1F700C0000082B38E7782BB0895CF93CC
S1130210C82F862F0E94E5008FEC97E00197F1F735
S113022000C000008C2F0E94F800CF9108958FEF3A
S113023099EF0197F1F700C000008CE30E94E500FC
S11302408FE00E94E50081E00E94E5008FEC97E0DA
S11302500197F1F700C0000086E00E94E5000895D0
S1130260CF93DF93EC01862F0E94E50088818823D9
S113027031F021960E94F80089918823D9F7DF9103
S1130280CF9108953F924F925F926F927F928F9297
S11302909F92AF92BF92CF92DF92EF92FF920F9311
S11302A01F93CF93DF93CDB7DEB728970FB6F8949B
S11302B0DEBF0FBECDBF362E2E010894411C511C4B
S11302C00F2EF3E06F2E7724F02D9C01B9018827BF
S11302D077FD8095982F0E94D0034B015C01B301F8
S11302E0882777FD8095982F0E94D0039B01AC014D
S11302F060E070E080E291E40E94BF04F62EE72EF5
S1130300D82EC92EC501B4010F2D1E2D2D2D3C2D27
S1130310A90198010E9435030E949D03DC01CB01D1
S1130320F201819391932F019C01B901882777FDF4
S11303308095982F0E94D0039B01AC018F2D9E2D98
S1130340AD2DBC2DBC01CD010E945C049B01AC0110
S1130350C501B4010E94D0020E949D03DC01CB01BF
S11303600894610871083FEF63163FEF730609F0C4
S1130370ACCF0F81005D1D81105D8B810F2EF0E3EA
S1130380FF2EF02DF80E8981805D632D0E940701F8
S1130390632D6F5F8F2D0E940701632D6D5F812F89
S11303A00E940701632D6C5F802F0E94070128962D
S11303B00FB6F894DEBF0FBECDBFDF91CF911F9172
S11303C00F91FF90EF90DF90CF90BF90AF909F90F0
S11303D08F907F906F905F904F903F900895F89426
S11303E083EA81BB8FEF87BBD19A1BBA82EA8FBDA8
S11303F089E18EBD80E990E097BD86BD85E090E0FF
S11304009BBD8ABD8BB7806C8BBF85B78F6085BF62
S1130410329A80E487B9369A339A379A78940E944C
S1130420170180E690E060E80E94300181E790E0E7
S113043060EC0E94300180918E0090918F00209199
S1130440880030918900821B930B90938D008093D8
S11304508C00A0908E00B0908F00809188009091C5
S11304608900A81AB90AB0928B00A0928A00B5013B
S1130470882777FD8095982F0E94D00320E030E0F4
S113048040E05FE30E945C04C62EC72FD82FF92EEC
S11304906091820070918300882777FD8095982F62
S11304A00E94D0030C2D1C2F2D2F3F2DA901980144
S11304B00E94D1020E949D03DC01CB014C01909368
S11304C083008093820080918C0090918D00B5010F
S11304D0681B790B882777FD8095982F0E94D0039D
S11304E09B01AC010E94D1020E949D03DC01CB015F
S11304F08C019093850080938400B401882777FD54
S11305008095982F0E94D0032FE632E143E85AE306
S11305100E945C049B01AC018C2D9C2FAD2FBF2D40
S1130520BC01CD010E94D1026B017C01B801882776
S113053077FD8095982F0E94D00320E030E0A90138
S11305400E945C049B01AC01C701B6010E94D10268
S11305500E949D036093860070938700862F972FD7
S11305609BBD8ABDB0928D00A0928C008FEB99E365
S1130570A6E081509040A040E1F700C00000209127
S1130580900030919100C901880F991F820F931F29
S1130590809388009093890065EC0E94420159CFB2
S11305A05058BB27AA270ED04DC13ED130F043D1BD
S11305B020F031F49F3F11F41EF433C10EF4E095A2
S11305C0E7FB29C1E92F4FD180F3BA1762077307FC
S11305D08407950718F071F49EF567C10EF4E09551
S11305E00B2EBA2FA02D0B01B90190010C01CA01E9
S11305F0A0011124FF27591B99F0593F50F4503E94
S113060068F11A16F040A22F232F342F4427585F85
S1130610F3CF469537952795A795F0405395C9F79D
S11306207EF41F16BA0B620B730B840BBAF0915055
S1130630A1F0FF0FBB1F661F771F881FC2F70EC0F4
S1130640BA0F621F731F841F48F4879577956795C7
S1130650B795F7959E3F08F0B3CF9395880F08F0B0
S11306609927EE0F9795879508950CD0EBC0E3D0AA
S113067040F0DAD030F021F45F3F19F0CCC05111D2
S113068015C1CFC0F0D098F39923C9F35523B1F322
S1130690951B550BBB27AA2762177307840738F0ED
S11306A09F5F5F4F220F331F441FAA1FA9F333D04C
S11306B00E2E3AF0E0E830D091505040E695001C00
S11306C0CAF729D0FE2F27D0660F771F881FBB1FBC
S11306D0261737074807AB07B0E809F0BB0B802D96
S11306E0BF01FF2793585F4F2AF09E3F510568F0E2
S11306F092C0DCC05F3FECF3983EDCF386957795BF
S11307006795B795F7959F5FC9F7880F911D9695E3
S1130710879597F90895E1E0660F771F881FBB1F3F
S1130720621773078407BA0720F0621B730B840BEC
S1130730BA0BEE1F88F7E095089504D06894B111C0
S1130740B5C0089598D088F09F5790F0B92F992795
S1130750B751A0F0D1F0660F771F881F991F1AF0C8
S1130760BA95C9F712C0B13081F09FD0B1E00895B5
S11307709CC0672F782F8827B85F39F0B93FCCF336
S1130780869577956795B395D9F73EF490958095BE
S1130790709561957F4F8F4F9F4F0895E89409C0DE
S11307A097FB3EF490958095709561957F4F8F4FA0
S11307B09F4F9923A9F0F92F96E9BB279395F695B6
S11307C0879577956795B795F111F8CFFAF4BB0F34
S11307D011F460FF1BC06F5F7F4F8F4F9F4F16C098
S11307E0882311F096E911C0772321F09EE8872F22
S11307F0762F05C0662371F096E8862F70E060E0DE
S11308002AF09A95660F771F881FDAF7880F969556
S1130810879597F9089597F99F6780E870E060E0FD
S113082008959FEF80EC089500240A941616170685
S113083018060906089500240A94121613061406CD
S113084005060895092E0394000C11F4882352F030
S1130850BB0F40F4BF2B11F460FF04C06F5F7F4FE8
S11308608F4F9F4F089557FD9058440F551F59F0CF
S11308705F3F71F04795880F97FB991F61F09F3F89
S113088079F087950895121613061406551FF2CFB2
S11308904695F1DF08C0161617061806991FF1CF02
S11308A086957105610508940895E894BB27662729
S11308B07727CB0197F908950BD0C4CFB5DF28F083
S11308C0BADF18F0952309F0A6CFABCF1124EECFF1
S11308D0CADFA0F3959FD1F3950F50E0551F629F97
S11308E0F001729FBB27F00DB11D639FAA27F00D85
S11308F0B11DAA1F649F6627B00DA11D661F829FAC
S11309002227B00DA11D621F739FB00DA11D621F90
S1130910839FA00D611D221F749F3327A00D611DAD
S1130920231F849F600D211D822F762F6A2F11248F
S11309309F5750408AF0E1F088234AF0EE0FFF1FE2
S1130940BB1F661F771F881F91505040A9F79E3F19
S1130950510570F060CFAACF5F3FECF3983EDCF313
S1130960869577956795B795F795E7959F5FC1F756
S1130970FE2B880F911D9695879597F90895FA0196
S1130980EE0FFF1F30962105310599F161157105B0
S113099061F48038BFE39B0749F16894903881057E
S11309A061F08038BFEF9B0741F0992342F5FF3F88
S11309B0E1053105210511F1E8940894E795D90181
S11309C0AA2329F4AB2FBE2FF85FD0F310C0FF5F2A
S11309D070F4A695E0F7F73950F019F0FF3A38F4BF
S11309E09F779F930CD00F9007FC905808953EF08A
S11309F018CF60E070E080E89FE308954FE79F77A9
S1130A005F934F933F932F939ED02F913F914F919C
S1130A105F9152DF05C019F40EF0FDCE46CF01CF31
S1130A202ADFC8F39638C0F707F80F92E8942BE34F
S1130A303AEA48EB5FE74EDF0F920F920F924DB701
S1130A405EB70F92C0D0E4E5F0E016D04F915F910D
S1130A50EF91FF91E595EE1FFF1F49F0FE57E06807
S1130A604427EE0F441FFA95E1F74195550B32D018
S1130A700F9007FE26C00895DF93CF931F930F9323
S1130A80FF92EF92DF927B018C01689405C0DA2E0D
S1130A90EF011EDFFE01E894A59125913591459162
S1130AA05591AEF3EF018EDDFE019701A801DA94B2
S1130AB079F7DF90EF90FF900F911F91CF91DF9125
S1130AC008959B01AC0160E070E080E89FE3CDCD28
S1130AD0A2CEACC0D0DEE8F39923D9F3940F511D14
S1130AE0BBF39150504094F059F0882332F0660FD4
S1130AF0771F881F91505040C1F79E3F510544F71E
S1130B00880F911D9695879597F908955F3FACF0EE
S1130B10983E9CF0BB27869577956795B79508F422
S1130B20B1609395C1F7BB0F58F711F460FFE8CF9C
S1130B306F5F7F4F8F4F9F4FE3CFB8CE0EF076C0DD
S1130B4070CE689468CE97DEC8F39923D1F3C6F3C8
S1130B50DF93CF931F930F93FF92C92FDD27882331
S1130B602AF02197660F771F881FDAF720E030E01C
S1130B7040E85FEB9FE3883920F0803E30F0219617
S1130B808F770FDDECE7F0E003C00BDDE9EAF0E07E
S1130B9073DF8B01BE01EC01FB2E6F577109759554
S1130BA0771F880B990BFCDD28E132E741E35FE313
S1130BB08FDEAF2D9801AE01FF900F911F91CF9161
S1130BC0DF9100DD3FCEFA01DC01AA0FBB1F9B01C0
S1130BD0AC01BF5728F422273327442750781FC07D
S1130BE0B75188F4AB2F0024469537952795011CFF
S1130BF0A395D2F3002069F0220F331F441FB3954D
S1130C00DAF30DD0CDCC61307105A0E88A07B9467E
S1130C1030F49B01AC0166277727882790783096BB
S1130C2021F0208331834283538308959F3F31F021
S1130C30915020F4879577956795B795880F911D06
S10F0C409695879597F90895F894FFCFD6
S1130C4C202041444320566F6C746167653A202020
S1130C5C00202020202030302E3030562020202020
S1050C6C200062
S9030000FC
