:100000000C942A000C946E000C948D000C94470004
:100010000C9447000C9447000C9447000C94470044
:100020000C9447000C9447000C9447000C94470034
:100030000C9447000C9447000C9447000C94470024
:100040000C94A5000C9447000C9447000C944700B6
:100050000C94470011241FBECFE5D8E0DEBFCDBF12
:1000600010E0A0E6B0E0ECE6F1E002C005900D92F1
:10007000A036B107D9F710E0A0E6B0E001C01D92AC
:10008000A036B107E1F70E9449000C94B4000C942B
:100090000000F89480E281BB14BA80EE87BB82EA4C
:1000A0008FBD89E18EBD8DE491E097BD86BD85E071
:1000B00090E09BBD8ABD80EC8BBF8FE085BF329AFC
:1000C0003E9A339A379A789482E08A95F1F700C085
:1000D0008AB59BB501969BBD8ABDF6CF1F920F9244
:1000E0000FB60F9211242F933F938F939F932AB5AE
:1000F0003BB586B597B501978217930728F08AB567
:100100009BB501969BBD8ABD9F918F913F912F9189
:100110000F900FBE0F901F9018951F920F920FB661
:100120000F9211248F939F938AB59BB582309105CE
:1001300028F08AB59BB501979BBD8ABD9F918F9191
:100140000F900FBE0F901F9018951F920F920FB631
:100150000F9211248F9384B185B1369A8F910F90AD
:0C0160000FBE0F901F901895F894FFCF71
:00000001FF
